{
  "contractName": "DirectCrowdsaleLib",
  "abi": [
    {
      "anonymous": false,
      "inputs": [
        {
          "indexed": true,
          "name": "_bidder",
          "type": "address"
        },
        {
          "indexed": false,
          "name": "Amount",
          "type": "uint256"
        }
      ],
      "name": "LogTokensWithdrawn",
      "type": "event"
    },
    {
      "anonymous": false,
      "inputs": [
        {
          "indexed": true,
          "name": "_bidder",
          "type": "address"
        },
        {
          "indexed": false,
          "name": "Amount",
          "type": "uint256"
        }
      ],
      "name": "LogWeiWithdrawn",
      "type": "event"
    },
    {
      "anonymous": false,
      "inputs": [
        {
          "indexed": true,
          "name": "owner",
          "type": "address"
        },
        {
          "indexed": false,
          "name": "amount",
          "type": "uint256"
        },
        {
          "indexed": false,
          "name": "Msg",
          "type": "string"
        }
      ],
      "name": "LogOwnerEthWithdrawn",
      "type": "event"
    },
    {
      "anonymous": false,
      "inputs": [
        {
          "indexed": false,
          "name": "_buyer",
          "type": "address"
        },
        {
          "indexed": false,
          "name": "value",
          "type": "uint256"
        },
        {
          "indexed": false,
          "name": "Msg",
          "type": "string"
        }
      ],
      "name": "LogNoticeMsg",
      "type": "event"
    },
    {
      "anonymous": false,
      "inputs": [
        {
          "indexed": false,
          "name": "amount",
          "type": "uint256"
        },
        {
          "indexed": false,
          "name": "Msg",
          "type": "string"
        }
      ],
      "name": "LogErrorMsg",
      "type": "event"
    },
    {
      "anonymous": false,
      "inputs": [
        {
          "indexed": true,
          "name": "buyer",
          "type": "address"
        },
        {
          "indexed": false,
          "name": "amount",
          "type": "uint256"
        }
      ],
      "name": "LogTokensBought",
      "type": "event"
    },
    {
      "anonymous": false,
      "inputs": [
        {
          "indexed": false,
          "name": "amount",
          "type": "uint256"
        },
        {
          "indexed": false,
          "name": "Msg",
          "type": "string"
        }
      ],
      "name": "LogTokenPriceChange",
      "type": "event"
    },
    {
      "constant": false,
      "inputs": [
        {
          "name": "self",
          "type": "DirectCrowdsaleLib.DirectCrowdsaleStorage storage"
        },
        {
          "name": "_owner",
          "type": "address"
        },
        {
          "name": "_saleData",
          "type": "uint256[]"
        },
        {
          "name": "_endTime",
          "type": "uint256"
        },
        {
          "name": "_percentBurn",
          "type": "uint8"
        },
        {
          "name": "_token",
          "type": "CrowdsaleToken"
        }
      ],
      "name": "init",
      "outputs": [],
      "payable": false,
      "stateMutability": "nonpayable",
      "type": "function"
    },
    {
      "constant": false,
      "inputs": [
        {
          "name": "self",
          "type": "DirectCrowdsaleLib.DirectCrowdsaleStorage storage"
        },
        {
          "name": "_amount",
          "type": "uint256"
        }
      ],
      "name": "receivePurchase",
      "outputs": [
        {
          "name": "",
          "type": "bool"
        }
      ],
      "payable": false,
      "stateMutability": "nonpayable",
      "type": "function"
    },
    {
      "constant": false,
      "inputs": [
        {
          "name": "self",
          "type": "DirectCrowdsaleLib.DirectCrowdsaleStorage storage"
        }
      ],
      "name": "setTokens",
      "outputs": [
        {
          "name": "",
          "type": "bool"
        }
      ],
      "payable": false,
      "stateMutability": "nonpayable",
      "type": "function"
    },
    {
      "constant": false,
      "inputs": [
        {
          "name": "self",
          "type": "DirectCrowdsaleLib.DirectCrowdsaleStorage storage"
        }
      ],
      "name": "withdrawTokens",
      "outputs": [
        {
          "name": "",
          "type": "bool"
        }
      ],
      "payable": false,
      "stateMutability": "nonpayable",
      "type": "function"
    },
    {
      "constant": false,
      "inputs": [
        {
          "name": "self",
          "type": "DirectCrowdsaleLib.DirectCrowdsaleStorage storage"
        }
      ],
      "name": "withdrawLeftoverWei",
      "outputs": [
        {
          "name": "",
          "type": "bool"
        }
      ],
      "payable": false,
      "stateMutability": "nonpayable",
      "type": "function"
    },
    {
      "constant": false,
      "inputs": [
        {
          "name": "self",
          "type": "DirectCrowdsaleLib.DirectCrowdsaleStorage storage"
        }
      ],
      "name": "withdrawOwnerEth",
      "outputs": [
        {
          "name": "",
          "type": "bool"
        }
      ],
      "payable": false,
      "stateMutability": "nonpayable",
      "type": "function"
    },
    {
      "constant": true,
      "inputs": [
        {
          "name": "self",
          "type": "DirectCrowdsaleLib.DirectCrowdsaleStorage storage"
        },
        {
          "name": "timestamp",
          "type": "uint256"
        }
      ],
      "name": "getSaleData",
      "outputs": [
        {
          "name": "",
          "type": "uint256[2]"
        }
      ],
      "payable": false,
      "stateMutability": "view",
      "type": "function"
    },
    {
      "constant": true,
      "inputs": [
        {
          "name": "self",
          "type": "DirectCrowdsaleLib.DirectCrowdsaleStorage storage"
        }
      ],
      "name": "getTokensSold",
      "outputs": [
        {
          "name": "",
          "type": "uint256"
        }
      ],
      "payable": false,
      "stateMutability": "view",
      "type": "function"
    },
    {
      "constant": true,
      "inputs": [
        {
          "name": "self",
          "type": "DirectCrowdsaleLib.DirectCrowdsaleStorage storage"
        }
      ],
      "name": "crowdsaleActive",
      "outputs": [
        {
          "name": "",
          "type": "bool"
        }
      ],
      "payable": false,
      "stateMutability": "view",
      "type": "function"
    },
    {
      "constant": true,
      "inputs": [
        {
          "name": "self",
          "type": "DirectCrowdsaleLib.DirectCrowdsaleStorage storage"
        }
      ],
      "name": "crowdsaleEnded",
      "outputs": [
        {
          "name": "",
          "type": "bool"
        }
      ],
      "payable": false,
      "stateMutability": "view",
      "type": "function"
    }
  ],
  "bytecode": "0x611dc3610030600b82828239805160001a6073146000811461002057610022565bfe5b5030600052607381538281f30073000000000000000000000000000000000000000030146060604052600436106100bb576000357c0100000000000000000000000000000000000000000000000000000000900463ffffffff1680630239796e146100c05780630acfb9851461011d578063112c1e901461014d5780637b84bfb5146101885780638e7a5336146101c357806396aa867a146101fe578063aae1288a146102b4578063e1f0a45a146102e4578063eabf1a1314610328578063eb40c0d614610354575b600080fd5b6100df600480803590602001909190803590602001909190505061038f565b6040518082600260200280838360005b8381101561010a5780820151818401526020810190506100ef565b5050505090500191505060405180910390f35b610133600480803590602001909190505061047b565b604051808215151515815260200191505060405180910390f35b811561015857600080fd5b61016e600480803590602001909190505061048b565b604051808215151515815260200191505060405180910390f35b811561019357600080fd5b6101a96004808035906020019091905050610669565b604051808215151515815260200191505060405180910390f35b81156101ce57600080fd5b6101e46004808035906020019091905050610bf6565b604051808215151515815260200191505060405180910390f35b811561020957600080fd5b6102b2600480803590602001909190803573ffffffffffffffffffffffffffffffffffffffff169060200190919080359060200190820180359060200190808060200260200160405190810160405280939291908181526020018383602002808284378201915050505050509190803590602001909190803560ff1690602001909190803573ffffffffffffffffffffffffffffffffffffffff16906020019091905050610f26565b005b6102ca600480803590602001909190505061122c565b604051808215151515815260200191505060405180910390f35b81156102ef57600080fd5b61030e600480803590602001909190803590602001909190505061124d565b604051808215151515815260200191505060405180910390f35b61033e60048080359060200190919050506119ce565b6040518082815260200191505060405180910390f35b811561035f57600080fd5b6103756004808035906020019091905050611a43565b604051808215151515815260200191505060405180910390f35b610397611d1f565b61039f611d1f565b60005b8460060180549050811080156103d357508385600601828154811015156103c557fe5b906000526020600020900154105b156103e55780806001019150506103a2565b60008114156103f75780806001019150505b846006016001820381548110151561040b57fe5b90600052602060002090015482600060028110151561042657fe5b60200201818152505084600801600083600060028110151561044457fe5b602002015181526020019081526020016000205482600160028110151561046757fe5b602002018181525050819250505092915050565b6000816003015442119050919050565b6000808260000160009054906101000a900473ffffffffffffffffffffffffffffffffffffffff1673ffffffffffffffffffffffffffffffffffffffff163373ffffffffffffffffffffffffffffffffffffffff161415156104ec57600080fd5b8260070160029054906101000a900460ff1615151561050a57600080fd5b82600301544210151561051c57600080fd5b82600c0160009054906101000a900473ffffffffffffffffffffffffffffffffffffffff1673ffffffffffffffffffffffffffffffffffffffff166370a08231306040518263ffffffff167c0100000000000000000000000000000000000000000000000000000000028152600401808273ffffffffffffffffffffffffffffffffffffffff1673ffffffffffffffffffffffffffffffffffffffff168152602001915050602060405180830381600087803b15156105da57600080fd5b5af115156105e757600080fd5b5050506040518051905090508083600a0160003373ffffffffffffffffffffffffffffffffffffffff1673ffffffffffffffffffffffffffffffffffffffff1681526020019081526020016000208190555080836005018190555060018360070160026101000a81548160ff0219169083151502179055506001915050919050565b600080600080600085600a0160003373ffffffffffffffffffffffffffffffffffffffff1673ffffffffffffffffffffffffffffffffffffffff168152602001908152602001600020541415610759577f8756f3e78da606244d7d8c9563ce2678f294db7c57afce515849e03d5eec6c3a60006040518082815260200180602001828103825260218152602001807f53656e64657220686173206e6f20746f6b656e7320746f20776974686472617781526020017f21000000000000000000000000000000000000000000000000000000000000008152506040019250505060405180910390a160009350610bee565b8460000160009054906101000a900473ffffffffffffffffffffffffffffffffffffffff1673ffffffffffffffffffffffffffffffffffffffff163373ffffffffffffffffffffffffffffffffffffffff161415610a25576107ba8561047b565b1515610860577f8756f3e78da606244d7d8c9563ce2678f294db7c57afce515849e03d5eec6c3a60006040518082815260200180602001828103825260388152602001807f4f776e65722063616e6e6f7420776974686472617720657874726120746f6b6581526020017f6e7320756e74696c206166746572207468652073616c652100000000000000008152506040019250505060405180910390a160009350610bee565b60008560070160019054906101000a900460ff1660ff161115610a245760648560070160019054906101000a900460ff1660ff1686600a0160003373ffffffffffffffffffffffffffffffffffffffff1673ffffffffffffffffffffffffffffffffffffffff16815260200190815260200160002054028115156108e057fe5b0491508185600a0160003373ffffffffffffffffffffffffffffffffffffffff1673ffffffffffffffffffffffffffffffffffffffff168152602001908152602001600020540385600a0160003373ffffffffffffffffffffffffffffffffffffffff1673ffffffffffffffffffffffffffffffffffffffff1681526020019081526020016000208190555084600c0160009054906101000a900473ffffffffffffffffffffffffffffffffffffffff1673ffffffffffffffffffffffffffffffffffffffff16637b47ec1a836040518263ffffffff167c010000000000000000000000000000000000000000000000000000000002815260040180828152602001915050602060405180830381600087803b15156109fe57600080fd5b5af11515610a0b57600080fd5b505050604051805190509250821515610a2357600080fd5b5b5b84600a0160003373ffffffffffffffffffffffffffffffffffffffff1673ffffffffffffffffffffffffffffffffffffffff168152602001908152602001600020549050600085600a0160003373ffffffffffffffffffffffffffffffffffffffff1673ffffffffffffffffffffffffffffffffffffffff1681526020019081526020016000208190555084600c0160009054906101000a900473ffffffffffffffffffffffffffffffffffffffff1673ffffffffffffffffffffffffffffffffffffffff1663a9059cbb33836040518363ffffffff167c0100000000000000000000000000000000000000000000000000000000028152600401808373ffffffffffffffffffffffffffffffffffffffff1673ffffffffffffffffffffffffffffffffffffffff16815260200182815260200192505050602060405180830381600087803b1515610b7657600080fd5b5af11515610b8357600080fd5b505050604051805190509250821515610b9b57600080fd5b3373ffffffffffffffffffffffffffffffffffffffff167fac0f38657cc8741669b8ba861fe5e6e18a4256a26ce4963b7b74a0f8739fdc6f826040518082815260200191505060405180910390a2600193505b505050919050565b600080610c028361047b565b158015610ce35750600083600c0160009054906101000a900473ffffffffffffffffffffffffffffffffffffffff1673ffffffffffffffffffffffffffffffffffffffff166370a08231306040518263ffffffff167c0100000000000000000000000000000000000000000000000000000000028152600401808273ffffffffffffffffffffffffffffffffffffffff1673ffffffffffffffffffffffffffffffffffffffff168152602001915050602060405180830381600087803b1515610cca57600080fd5b5af11515610cd757600080fd5b50505060405180519050115b15610d88577f8756f3e78da606244d7d8c9563ce2678f294db7c57afce515849e03d5eec6c3a60006040518082815260200180602001828103825260318152602001807f43616e6e6f74207769746864726177206f776e657220657468657220756e746981526020017f6c206166746572207468652073616c65210000000000000000000000000000008152506040019250505060405180910390a160009150610f20565b8260000160009054906101000a900473ffffffffffffffffffffffffffffffffffffffff1673ffffffffffffffffffffffffffffffffffffffff163373ffffffffffffffffffffffffffffffffffffffff16141515610de657600080fd5b60008360040154111515610df957600080fd5b82600401549050600083600401819055508260000160009054906101000a900473ffffffffffffffffffffffffffffffffffffffff1673ffffffffffffffffffffffffffffffffffffffff166108fc829081150290604051600060405180830381858888f193505050501515610e6e57600080fd5b3373ffffffffffffffffffffffffffffffffffffffff167f4159712a53cf7d5c014b7f7bccd52ce07122696797310c76d6d4273f0bda9e99826040518082815260200180602001828103825260288152602001807f43726f776473616c65206f776e6572206861732077697468647261776e20616c81526020017f6c2066756e6473210000000000000000000000000000000000000000000000008152506040019250505060405180910390a2600191505b50919050565b60008060008860000160009054906101000a900473ffffffffffffffffffffffffffffffffffffffff1673ffffffffffffffffffffffffffffffffffffffff16141515610f7257600080fd5b60008651111515610f8257600080fd5b600060028751811515610f9157fe5b06141515610f9e57600080fd5b611c204201866000815181101515610fb257fe5b90602001906020020151111515610fc857600080fd5b856000815181101515610fd757fe5b9060200190602002015185111515610fee57600080fd5b60008773ffffffffffffffffffffffffffffffffffffffff1611151561101357600080fd5b60648460ff161115151561102657600080fd5b868860000160006101000a81548173ffffffffffffffffffffffffffffffffffffffff021916908373ffffffffffffffffffffffffffffffffffffffff16021790555085600081518110151561107857fe5b9060200190602002015188600201819055508488600301819055508288600c0160006101000a81548173ffffffffffffffffffffffffffffffffffffffff021916908373ffffffffffffffffffffffffffffffffffffffff160217905550838860070160016101000a81548160ff021916908360ff160217905550600090505b85518110156112015781868281518110151561111057fe5b9060200190602002015111151561112657600080fd5b6000866001830181518110151561113957fe5b9060200190602002015111151561114f57600080fd5b8760060180548060010182816111659190611d46565b91600052602060002090016000888481518110151561118057fe5b906020019060200201519091909150555085600182018151811015156111a257fe5b9060200190602002015188600801600088848151811015156111c057fe5b9060200190602002015181526020019081526020016000208190555085818151811015156111ea57fe5b9060200190602002015191506002810190506110f8565b85600181518110151561121057fe5b9060200190602002015188600101819055505050505050505050565b600081600201544210158015611246575081600301544211155b9050919050565b60008060008060008060008860000160009054906101000a900473ffffffffffffffffffffffffffffffffffffffff1673ffffffffffffffffffffffffffffffffffffffff163373ffffffffffffffffffffffffffffffffffffffff16141515156112b757600080fd5b6112c089611c54565b15156112cb57600080fd5b60018960070160009054906101000a900460ff160160ff16896006018054905011801561132a57508860060160018a60070160009054906101000a900460ff160160ff1681548110151561131b57fe5b90600052602060002090015442115b1561148c575b60018960070160009054906101000a900460ff160160ff16896006018054905011801561138f57508860060160018a60070160009054906101000a900460ff160160ff1681548110151561138057fe5b90600052602060002090015442115b156113c95760018960070160008282829054906101000a900460ff160192506101000a81548160ff021916908360ff160217905550611330565b8860080160008a6006018b60070160009054906101000a900460ff1660ff168154811015156113f457fe5b90600052602060002090015481526020019081526020016000205489600101819055507f140575aff45eb4e414ffb6ece685f9e52ecf2bb56553b9e1b716175d9a25bffa89600101546040518082815260200180602001828103825260188152602001807f546f6b656e20507269636520686173206368616e6765642100000000000000008152506020019250505060405180910390a15b8773__BasicMathLib__________________________631d3b9edf90918b600101546040518363ffffffff167c01000000000000000000000000000000000000000000000000000000000281526004018083815260200182815260200192505050604080518083038186803b151561150357600080fd5b5af4151561151057600080fd5b5050506040518051906020018051905080955081925050508015151561153557600080fd5b670de0b6b3a76400008481151561154857fe5b049550670de0b6b3a76400008481151561155e57fe5b06915088600101548281151561157057fe5b049150818301925081880397508289600b0160003373ffffffffffffffffffffffffffffffffffffffff1673ffffffffffffffffffffffffffffffffffffffff16815260200190815260200160002060008282540192505081905550878960090160003373ffffffffffffffffffffffffffffffffffffffff1673ffffffffffffffffffffffffffffffffffffffff1681526020019081526020016000206000828254019250508190555088600c0160009054906101000a900473ffffffffffffffffffffffffffffffffffffffff1673ffffffffffffffffffffffffffffffffffffffff166370a08231306040518263ffffffff167c0100000000000000000000000000000000000000000000000000000000028152600401808273ffffffffffffffffffffffffffffffffffffffff1673ffffffffffffffffffffffffffffffffffffffff168152602001915050602060405180830381600087803b15156116d957600080fd5b5af115156116e657600080fd5b5050506040518051905086111515156116fb57fe5b886004015473__BasicMathLib__________________________6366098d4f90918a6040518363ffffffff167c01000000000000000000000000000000000000000000000000000000000281526004018083815260200182815260200192505050604080518083038186803b151561177257600080fd5b5af4151561177f57600080fd5b505050604051805190602001805190508096508192505050801515156117a457600080fd5b8489600401819055508589600a0160003373ffffffffffffffffffffffffffffffffffffffff1673ffffffffffffffffffffffffffffffffffffffff1681526020019081526020016000206000828254019250508190555088600a0160008a60000160009054906101000a900473ffffffffffffffffffffffffffffffffffffffff1673ffffffffffffffffffffffffffffffffffffffff1673ffffffffffffffffffffffffffffffffffffffff1681526020019081526020016000205473__BasicMathLib__________________________63f4f3bdc19091886040518363ffffffff167c01000000000000000000000000000000000000000000000000000000000281526004018083815260200182815260200192505050604080518083038186803b15156118d457600080fd5b5af415156118e157600080fd5b5050506040518051906020018051905080935081925050508015151561190657600080fd5b8189600a0160008b60000160009054906101000a900473ffffffffffffffffffffffffffffffffffffffff1673ffffffffffffffffffffffffffffffffffffffff1673ffffffffffffffffffffffffffffffffffffffff168152602001908152602001600020819055503373ffffffffffffffffffffffffffffffffffffffff167f58e85e03761641c3aabc1113bca56bd151f1381debda5a1805aa1fbd3662c46d876040518082815260200191505060405180910390a26001965050505050505092915050565b600081600a0160008360000160009054906101000a900473ffffffffffffffffffffffffffffffffffffffff1673ffffffffffffffffffffffffffffffffffffffff1673ffffffffffffffffffffffffffffffffffffffff168152602001908152602001600020548260050154039050919050565b600080600083600b0160003373ffffffffffffffffffffffffffffffffffffffff1673ffffffffffffffffffffffffffffffffffffffff168152602001908152602001600020541415611b30577f8756f3e78da606244d7d8c9563ce2678f294db7c57afce515849e03d5eec6c3a60006040518082815260200180602001828103825260248152602001807f53656e64657220686173206e6f2065787472612077656920746f20776974686481526020017f72617721000000000000000000000000000000000000000000000000000000008152506040019250505060405180910390a160009150611c4e565b82600b0160003373ffffffffffffffffffffffffffffffffffffffff1673ffffffffffffffffffffffffffffffffffffffff168152602001908152602001600020549050600083600b0160003373ffffffffffffffffffffffffffffffffffffffff1673ffffffffffffffffffffffffffffffffffffffff168152602001908152602001600020819055503373ffffffffffffffffffffffffffffffffffffffff166108fc829081150290604051600060405180830381858888f193505050501515611bfb57600080fd5b3373ffffffffffffffffffffffffffffffffffffffff167f3531f0ded8ff844beb165a1eeff617d161ea9381dee34a2695d33ea8412d66cd826040518082815260200191505060405180910390a2600191505b50919050565b60008060003414159050611c678361122c565b8015611c705750805b15611c7e5760019150611d19565b7f8756f3e78da606244d7d8c9563ce2678f294db7c57afce515849e03d5eec6c3a346040518082815260200180602001828103825260378152602001807f496e76616c69642050757263686173652120436865636b20737461727420746981526020017f6d6520616e6420616d6f756e74206f662065746865722e0000000000000000008152506040019250505060405180910390a1600091505b50919050565b60408051908101604052806002905b6000815260200190600190039081611d2e5790505090565b815481835581811511611d6d57818360005260206000209182019101611d6c9190611d72565b5b505050565b611d9491905b80821115611d90576000816000905550600101611d78565b5090565b905600a165627a7a72305820cd3c352553456fdbe22a3d7397ce93de605a3ca89086ae34f0b72db4396cbc760029",
  "deployedBytecode": "0x611dc3610030600b82828239805160001a6073146000811461002057610022565bfe5b5030600052607381538281f30073000000000000000000000000000000000000000030146060604052600436106100bb576000357c0100000000000000000000000000000000000000000000000000000000900463ffffffff1680630239796e146100c05780630acfb9851461011d578063112c1e901461014d5780637b84bfb5146101885780638e7a5336146101c357806396aa867a146101fe578063aae1288a146102b4578063e1f0a45a146102e4578063eabf1a1314610328578063eb40c0d614610354575b600080fd5b6100df600480803590602001909190803590602001909190505061038f565b6040518082600260200280838360005b8381101561010a5780820151818401526020810190506100ef565b5050505090500191505060405180910390f35b610133600480803590602001909190505061047b565b604051808215151515815260200191505060405180910390f35b811561015857600080fd5b61016e600480803590602001909190505061048b565b604051808215151515815260200191505060405180910390f35b811561019357600080fd5b6101a96004808035906020019091905050610669565b604051808215151515815260200191505060405180910390f35b81156101ce57600080fd5b6101e46004808035906020019091905050610bf6565b604051808215151515815260200191505060405180910390f35b811561020957600080fd5b6102b2600480803590602001909190803573ffffffffffffffffffffffffffffffffffffffff169060200190919080359060200190820180359060200190808060200260200160405190810160405280939291908181526020018383602002808284378201915050505050509190803590602001909190803560ff1690602001909190803573ffffffffffffffffffffffffffffffffffffffff16906020019091905050610f26565b005b6102ca600480803590602001909190505061122c565b604051808215151515815260200191505060405180910390f35b81156102ef57600080fd5b61030e600480803590602001909190803590602001909190505061124d565b604051808215151515815260200191505060405180910390f35b61033e60048080359060200190919050506119ce565b6040518082815260200191505060405180910390f35b811561035f57600080fd5b6103756004808035906020019091905050611a43565b604051808215151515815260200191505060405180910390f35b610397611d1f565b61039f611d1f565b60005b8460060180549050811080156103d357508385600601828154811015156103c557fe5b906000526020600020900154105b156103e55780806001019150506103a2565b60008114156103f75780806001019150505b846006016001820381548110151561040b57fe5b90600052602060002090015482600060028110151561042657fe5b60200201818152505084600801600083600060028110151561044457fe5b602002015181526020019081526020016000205482600160028110151561046757fe5b602002018181525050819250505092915050565b6000816003015442119050919050565b6000808260000160009054906101000a900473ffffffffffffffffffffffffffffffffffffffff1673ffffffffffffffffffffffffffffffffffffffff163373ffffffffffffffffffffffffffffffffffffffff161415156104ec57600080fd5b8260070160029054906101000a900460ff1615151561050a57600080fd5b82600301544210151561051c57600080fd5b82600c0160009054906101000a900473ffffffffffffffffffffffffffffffffffffffff1673ffffffffffffffffffffffffffffffffffffffff166370a08231306040518263ffffffff167c0100000000000000000000000000000000000000000000000000000000028152600401808273ffffffffffffffffffffffffffffffffffffffff1673ffffffffffffffffffffffffffffffffffffffff168152602001915050602060405180830381600087803b15156105da57600080fd5b5af115156105e757600080fd5b5050506040518051905090508083600a0160003373ffffffffffffffffffffffffffffffffffffffff1673ffffffffffffffffffffffffffffffffffffffff1681526020019081526020016000208190555080836005018190555060018360070160026101000a81548160ff0219169083151502179055506001915050919050565b600080600080600085600a0160003373ffffffffffffffffffffffffffffffffffffffff1673ffffffffffffffffffffffffffffffffffffffff168152602001908152602001600020541415610759577f8756f3e78da606244d7d8c9563ce2678f294db7c57afce515849e03d5eec6c3a60006040518082815260200180602001828103825260218152602001807f53656e64657220686173206e6f20746f6b656e7320746f20776974686472617781526020017f21000000000000000000000000000000000000000000000000000000000000008152506040019250505060405180910390a160009350610bee565b8460000160009054906101000a900473ffffffffffffffffffffffffffffffffffffffff1673ffffffffffffffffffffffffffffffffffffffff163373ffffffffffffffffffffffffffffffffffffffff161415610a25576107ba8561047b565b1515610860577f8756f3e78da606244d7d8c9563ce2678f294db7c57afce515849e03d5eec6c3a60006040518082815260200180602001828103825260388152602001807f4f776e65722063616e6e6f7420776974686472617720657874726120746f6b6581526020017f6e7320756e74696c206166746572207468652073616c652100000000000000008152506040019250505060405180910390a160009350610bee565b60008560070160019054906101000a900460ff1660ff161115610a245760648560070160019054906101000a900460ff1660ff1686600a0160003373ffffffffffffffffffffffffffffffffffffffff1673ffffffffffffffffffffffffffffffffffffffff16815260200190815260200160002054028115156108e057fe5b0491508185600a0160003373ffffffffffffffffffffffffffffffffffffffff1673ffffffffffffffffffffffffffffffffffffffff168152602001908152602001600020540385600a0160003373ffffffffffffffffffffffffffffffffffffffff1673ffffffffffffffffffffffffffffffffffffffff1681526020019081526020016000208190555084600c0160009054906101000a900473ffffffffffffffffffffffffffffffffffffffff1673ffffffffffffffffffffffffffffffffffffffff16637b47ec1a836040518263ffffffff167c010000000000000000000000000000000000000000000000000000000002815260040180828152602001915050602060405180830381600087803b15156109fe57600080fd5b5af11515610a0b57600080fd5b505050604051805190509250821515610a2357600080fd5b5b5b84600a0160003373ffffffffffffffffffffffffffffffffffffffff1673ffffffffffffffffffffffffffffffffffffffff168152602001908152602001600020549050600085600a0160003373ffffffffffffffffffffffffffffffffffffffff1673ffffffffffffffffffffffffffffffffffffffff1681526020019081526020016000208190555084600c0160009054906101000a900473ffffffffffffffffffffffffffffffffffffffff1673ffffffffffffffffffffffffffffffffffffffff1663a9059cbb33836040518363ffffffff167c0100000000000000000000000000000000000000000000000000000000028152600401808373ffffffffffffffffffffffffffffffffffffffff1673ffffffffffffffffffffffffffffffffffffffff16815260200182815260200192505050602060405180830381600087803b1515610b7657600080fd5b5af11515610b8357600080fd5b505050604051805190509250821515610b9b57600080fd5b3373ffffffffffffffffffffffffffffffffffffffff167fac0f38657cc8741669b8ba861fe5e6e18a4256a26ce4963b7b74a0f8739fdc6f826040518082815260200191505060405180910390a2600193505b505050919050565b600080610c028361047b565b158015610ce35750600083600c0160009054906101000a900473ffffffffffffffffffffffffffffffffffffffff1673ffffffffffffffffffffffffffffffffffffffff166370a08231306040518263ffffffff167c0100000000000000000000000000000000000000000000000000000000028152600401808273ffffffffffffffffffffffffffffffffffffffff1673ffffffffffffffffffffffffffffffffffffffff168152602001915050602060405180830381600087803b1515610cca57600080fd5b5af11515610cd757600080fd5b50505060405180519050115b15610d88577f8756f3e78da606244d7d8c9563ce2678f294db7c57afce515849e03d5eec6c3a60006040518082815260200180602001828103825260318152602001807f43616e6e6f74207769746864726177206f776e657220657468657220756e746981526020017f6c206166746572207468652073616c65210000000000000000000000000000008152506040019250505060405180910390a160009150610f20565b8260000160009054906101000a900473ffffffffffffffffffffffffffffffffffffffff1673ffffffffffffffffffffffffffffffffffffffff163373ffffffffffffffffffffffffffffffffffffffff16141515610de657600080fd5b60008360040154111515610df957600080fd5b82600401549050600083600401819055508260000160009054906101000a900473ffffffffffffffffffffffffffffffffffffffff1673ffffffffffffffffffffffffffffffffffffffff166108fc829081150290604051600060405180830381858888f193505050501515610e6e57600080fd5b3373ffffffffffffffffffffffffffffffffffffffff167f4159712a53cf7d5c014b7f7bccd52ce07122696797310c76d6d4273f0bda9e99826040518082815260200180602001828103825260288152602001807f43726f776473616c65206f776e6572206861732077697468647261776e20616c81526020017f6c2066756e6473210000000000000000000000000000000000000000000000008152506040019250505060405180910390a2600191505b50919050565b60008060008860000160009054906101000a900473ffffffffffffffffffffffffffffffffffffffff1673ffffffffffffffffffffffffffffffffffffffff16141515610f7257600080fd5b60008651111515610f8257600080fd5b600060028751811515610f9157fe5b06141515610f9e57600080fd5b611c204201866000815181101515610fb257fe5b90602001906020020151111515610fc857600080fd5b856000815181101515610fd757fe5b9060200190602002015185111515610fee57600080fd5b60008773ffffffffffffffffffffffffffffffffffffffff1611151561101357600080fd5b60648460ff161115151561102657600080fd5b868860000160006101000a81548173ffffffffffffffffffffffffffffffffffffffff021916908373ffffffffffffffffffffffffffffffffffffffff16021790555085600081518110151561107857fe5b9060200190602002015188600201819055508488600301819055508288600c0160006101000a81548173ffffffffffffffffffffffffffffffffffffffff021916908373ffffffffffffffffffffffffffffffffffffffff160217905550838860070160016101000a81548160ff021916908360ff160217905550600090505b85518110156112015781868281518110151561111057fe5b9060200190602002015111151561112657600080fd5b6000866001830181518110151561113957fe5b9060200190602002015111151561114f57600080fd5b8760060180548060010182816111659190611d46565b91600052602060002090016000888481518110151561118057fe5b906020019060200201519091909150555085600182018151811015156111a257fe5b9060200190602002015188600801600088848151811015156111c057fe5b9060200190602002015181526020019081526020016000208190555085818151811015156111ea57fe5b9060200190602002015191506002810190506110f8565b85600181518110151561121057fe5b9060200190602002015188600101819055505050505050505050565b600081600201544210158015611246575081600301544211155b9050919050565b60008060008060008060008860000160009054906101000a900473ffffffffffffffffffffffffffffffffffffffff1673ffffffffffffffffffffffffffffffffffffffff163373ffffffffffffffffffffffffffffffffffffffff16141515156112b757600080fd5b6112c089611c54565b15156112cb57600080fd5b60018960070160009054906101000a900460ff160160ff16896006018054905011801561132a57508860060160018a60070160009054906101000a900460ff160160ff1681548110151561131b57fe5b90600052602060002090015442115b1561148c575b60018960070160009054906101000a900460ff160160ff16896006018054905011801561138f57508860060160018a60070160009054906101000a900460ff160160ff1681548110151561138057fe5b90600052602060002090015442115b156113c95760018960070160008282829054906101000a900460ff160192506101000a81548160ff021916908360ff160217905550611330565b8860080160008a6006018b60070160009054906101000a900460ff1660ff168154811015156113f457fe5b90600052602060002090015481526020019081526020016000205489600101819055507f140575aff45eb4e414ffb6ece685f9e52ecf2bb56553b9e1b716175d9a25bffa89600101546040518082815260200180602001828103825260188152602001807f546f6b656e20507269636520686173206368616e6765642100000000000000008152506020019250505060405180910390a15b877322e3d9ad0e0ebed4f5530a1632234842d2a49630631d3b9edf90918b600101546040518363ffffffff167c01000000000000000000000000000000000000000000000000000000000281526004018083815260200182815260200192505050604080518083038186803b151561150357600080fd5b5af4151561151057600080fd5b5050506040518051906020018051905080955081925050508015151561153557600080fd5b670de0b6b3a76400008481151561154857fe5b049550670de0b6b3a76400008481151561155e57fe5b06915088600101548281151561157057fe5b049150818301925081880397508289600b0160003373ffffffffffffffffffffffffffffffffffffffff1673ffffffffffffffffffffffffffffffffffffffff16815260200190815260200160002060008282540192505081905550878960090160003373ffffffffffffffffffffffffffffffffffffffff1673ffffffffffffffffffffffffffffffffffffffff1681526020019081526020016000206000828254019250508190555088600c0160009054906101000a900473ffffffffffffffffffffffffffffffffffffffff1673ffffffffffffffffffffffffffffffffffffffff166370a08231306040518263ffffffff167c0100000000000000000000000000000000000000000000000000000000028152600401808273ffffffffffffffffffffffffffffffffffffffff1673ffffffffffffffffffffffffffffffffffffffff168152602001915050602060405180830381600087803b15156116d957600080fd5b5af115156116e657600080fd5b5050506040518051905086111515156116fb57fe5b88600401547322e3d9ad0e0ebed4f5530a1632234842d2a496306366098d4f90918a6040518363ffffffff167c01000000000000000000000000000000000000000000000000000000000281526004018083815260200182815260200192505050604080518083038186803b151561177257600080fd5b5af4151561177f57600080fd5b505050604051805190602001805190508096508192505050801515156117a457600080fd5b8489600401819055508589600a0160003373ffffffffffffffffffffffffffffffffffffffff1673ffffffffffffffffffffffffffffffffffffffff1681526020019081526020016000206000828254019250508190555088600a0160008a60000160009054906101000a900473ffffffffffffffffffffffffffffffffffffffff1673ffffffffffffffffffffffffffffffffffffffff1673ffffffffffffffffffffffffffffffffffffffff168152602001908152602001600020547322e3d9ad0e0ebed4f5530a1632234842d2a4963063f4f3bdc19091886040518363ffffffff167c01000000000000000000000000000000000000000000000000000000000281526004018083815260200182815260200192505050604080518083038186803b15156118d457600080fd5b5af415156118e157600080fd5b5050506040518051906020018051905080935081925050508015151561190657600080fd5b8189600a0160008b60000160009054906101000a900473ffffffffffffffffffffffffffffffffffffffff1673ffffffffffffffffffffffffffffffffffffffff1673ffffffffffffffffffffffffffffffffffffffff168152602001908152602001600020819055503373ffffffffffffffffffffffffffffffffffffffff167f58e85e03761641c3aabc1113bca56bd151f1381debda5a1805aa1fbd3662c46d876040518082815260200191505060405180910390a26001965050505050505092915050565b600081600a0160008360000160009054906101000a900473ffffffffffffffffffffffffffffffffffffffff1673ffffffffffffffffffffffffffffffffffffffff1673ffffffffffffffffffffffffffffffffffffffff168152602001908152602001600020548260050154039050919050565b600080600083600b0160003373ffffffffffffffffffffffffffffffffffffffff1673ffffffffffffffffffffffffffffffffffffffff168152602001908152602001600020541415611b30577f8756f3e78da606244d7d8c9563ce2678f294db7c57afce515849e03d5eec6c3a60006040518082815260200180602001828103825260248152602001807f53656e64657220686173206e6f2065787472612077656920746f20776974686481526020017f72617721000000000000000000000000000000000000000000000000000000008152506040019250505060405180910390a160009150611c4e565b82600b0160003373ffffffffffffffffffffffffffffffffffffffff1673ffffffffffffffffffffffffffffffffffffffff168152602001908152602001600020549050600083600b0160003373ffffffffffffffffffffffffffffffffffffffff1673ffffffffffffffffffffffffffffffffffffffff168152602001908152602001600020819055503373ffffffffffffffffffffffffffffffffffffffff166108fc829081150290604051600060405180830381858888f193505050501515611bfb57600080fd5b3373ffffffffffffffffffffffffffffffffffffffff167f3531f0ded8ff844beb165a1eeff617d161ea9381dee34a2695d33ea8412d66cd826040518082815260200191505060405180910390a2600191505b50919050565b60008060003414159050611c678361122c565b8015611c705750805b15611c7e5760019150611d19565b7f8756f3e78da606244d7d8c9563ce2678f294db7c57afce515849e03d5eec6c3a346040518082815260200180602001828103825260378152602001807f496e76616c69642050757263686173652120436865636b20737461727420746981526020017f6d6520616e6420616d6f756e74206f662065746865722e0000000000000000008152506040019250505060405180910390a1600091505b50919050565b60408051908101604052806002905b6000815260200190600190039081611d2e5790505090565b815481835581811511611d6d57818360005260206000209182019101611d6c9190611d72565b5b505050565b611d9491905b80821115611d90576000816000905550600101611d78565b5090565b905600a165627a7a72305820cd3c352553456fdbe22a3d7397ce93de605a3ca89086ae34f0b72db4396cbc760029",
  "source": "pragma solidity 0.4.21;\n\n/**\n * @title DirectCrowdsaleLib\n * @author Modular Inc, https://modular.network\n *\n * version 3.0.0\n * Copyright (c) 2017 Modular Inc\n * The MIT License (MIT)\n * https://github.com/Modular-Network/ethereum-libraries/blob/master/LICENSE\n *\n * The DirectCrowdsale Library provides functionality to create a initial coin offering\n * for a standard token sale with high supply where there is a direct ether to\n * token transfer.\n *\n * Modular provides smart contract services and security reviews for contract\n * deployments in addition to working on open source projects in the Ethereum\n * community. Our purpose is to test, document, and deploy reusable code onto the\n * blockchain and improve both security and usability. We also educate non-profits,\n * schools, and other community members about the application of blockchain\n * technology. For further information: modular.network\n *\n * THE SOFTWARE IS PROVIDED \"AS IS\", WITHOUT WARRANTY OF ANY KIND, EXPRESS\n * OR IMPLIED, INCLUDING BUT NOT LIMITED TO THE WARRANTIES OF\n * MERCHANTABILITY, FITNESS FOR A PARTICULAR PURPOSE AND NONINFRINGEMENT.\n * IN NO EVENT SHALL THE AUTHORS OR COPYRIGHT HOLDERS BE LIABLE FOR ANY\n * CLAIM, DAMAGES OR OTHER LIABILITY, WHETHER IN AN ACTION OF CONTRACT,\n * TORT OR OTHERWISE, ARISING FROM, OUT OF OR IN CONNECTION WITH THE\n * SOFTWARE OR THE USE OR OTHER DEALINGS IN THE SOFTWARE.\n */\n\nimport \"ethereum-libraries-basic-math/contracts/BasicMathLib.sol\";\nimport \"ethereum-libraries-token/contracts/CrowdsaleToken.sol\";\n\nlibrary DirectCrowdsaleLib {\n  using BasicMathLib for uint256;\n\n  struct DirectCrowdsaleStorage {\n\n    address owner;     //owner of the crowdsale\n\n  \tuint256 tokensPerEth;  //number of tokens received per ether\n  \tuint256 startTime; //ICO start time, timestamp\n  \tuint256 endTime; //ICO end time, timestamp automatically calculated\n    uint256 ownerBalance; //owner wei Balance\n    uint256 startingTokenBalance; //initial amount of tokens for sale\n    uint256[] milestoneTimes; //Array of timestamps when token price and address cap changes\n    uint8 currentMilestone; //Pointer to the current milestone\n    uint8 percentBurn; //percentage of extra tokens to burn\n    bool tokensSet; //true if tokens have been prepared for crowdsale\n\n    //Maps timestamp to token price\n    mapping (uint256 => uint256) tokenPrice;\n\n    //shows how much wei an address has contributed\n  \tmapping (address => uint256) hasContributed;\n\n    //For token withdraw function, maps a user address to the amount of tokens they can withdraw\n  \tmapping (address => uint256) withdrawTokensMap;\n\n    // any leftover wei that buyers contributed that didn't add up to a whole token amount\n    mapping (address => uint256) leftoverWei;\n\n  \tCrowdsaleToken token; //token being sold\n\n  }\n\n  // Indicates when an address has withdrawn their supply of tokens\n  event LogTokensWithdrawn(address indexed _bidder, uint256 Amount);\n\n  // Indicates when an address has withdrawn their supply of extra wei\n  event LogWeiWithdrawn(address indexed _bidder, uint256 Amount);\n\n  // Logs when owner has pulled eth\n  event LogOwnerEthWithdrawn(address indexed owner, uint256 amount, string Msg);\n\n  // Generic Notice message that includes and address and number\n  event LogNoticeMsg(address _buyer, uint256 value, string Msg);\n\n  // Indicates when an error has occurred in the execution of a function\n  event LogErrorMsg(uint256 amount, string Msg);\n\n  event LogTokensBought(address indexed buyer, uint256 amount);\n  event LogTokenPriceChange(uint256 amount, string Msg);\n\n\n  /// @dev Called by a crowdsale contract upon creation.\n  /// @param self Stored crowdsale from crowdsale contract\n  /// @param _owner Address of crowdsale owner\n  /// @param _saleData Array of 2 item sets such that, in each 2 element\n  /// set, 1 is timestamp, and 2 is price in tokens/ETH at that time\n  /// @param _endTime Timestamp of sale end time\n  /// @param _percentBurn Percentage of extra tokens to burn\n  /// @param _token Token being sold\n  function init(DirectCrowdsaleStorage storage self,\n                address _owner,\n                uint256[] _saleData,\n                uint256 _endTime,\n                uint8 _percentBurn,\n                CrowdsaleToken _token)\n                public\n  {\n    require(self.owner == 0);\n    require(_saleData.length > 0);\n    require((_saleData.length%2) == 0); // ensure saleData is 2-item sets\n    require(_saleData[0] > (now + 2 hours));\n    require(_endTime > _saleData[0]);\n    require(_owner > 0);\n    require(_percentBurn <= 100);\n    self.owner = _owner;\n    self.startTime = _saleData[0];\n    self.endTime = _endTime;\n    self.token = _token;\n    self.percentBurn = _percentBurn;\n\n    uint256 _tempTime;\n    for(uint256 i = 0; i < _saleData.length; i += 2){\n      require(_saleData[i] > _tempTime);\n      require(_saleData[i + 1] > 0);\n      self.milestoneTimes.push(_saleData[i]);\n      self.tokenPrice[_saleData[i]] = _saleData[i + 1];\n      _tempTime = _saleData[i];\n    }\n    self.tokensPerEth = _saleData[1];\n  }\n\n  /// @dev Called when an address wants to purchase tokens\n  /// @param self Stored crowdsale from crowdsale contract\n  /// @param _amount amount of wei that the buyer is sending\n  /// @return true on succesful purchase\n  function receivePurchase(DirectCrowdsaleStorage storage self, uint256 _amount)\n                           public\n                           returns (bool)\n  {\n    require(msg.sender != self.owner);\n  \trequire(validPurchase(self));\n\n  \t// if the token price increase interval has passed, update the current day and change the token price\n  \tif ((self.milestoneTimes.length > self.currentMilestone + 1) &&\n        (now > self.milestoneTimes[self.currentMilestone + 1]))\n    {\n        while((self.milestoneTimes.length > self.currentMilestone + 1) &&\n              (now > self.milestoneTimes[self.currentMilestone + 1]))\n        {\n          self.currentMilestone += 1;\n        }\n\n        self.tokensPerEth = self.tokenPrice[self.milestoneTimes[self.currentMilestone]];\n        emit LogTokenPriceChange(self.tokensPerEth,\"Token Price has changed!\");\n    }\n\n  \tuint256 _numTokens; //number of tokens that will be purchased\n    uint256 _newBalance; //the new balance of the owner of the crowdsale\n    uint256 _weiTokens; //temp calc holder\n    uint256 _leftoverWei; //wei change for purchaser\n    uint256 _remainder; //temp calc holder\n    bool err;\n\n    // Find the number of tokens as a function in wei\n    (err,_weiTokens) = _amount.times(self.tokensPerEth);\n    require(!err);\n\n    _numTokens = _weiTokens / 1000000000000000000;\n    _remainder = _weiTokens % 1000000000000000000;\n    _remainder = _remainder / self.tokensPerEth;\n    _leftoverWei += _remainder;\n    _amount = _amount - _remainder;\n    self.leftoverWei[msg.sender] += _leftoverWei;\n\n    // can't overflow because it is under the cap\n    self.hasContributed[msg.sender] += _amount;\n\n    assert(_numTokens <= self.token.balanceOf(this));\n\n    // calculate the amount of ether in the owners balance\n    (err,_newBalance) = self.ownerBalance.plus(_amount);\n    require(!err);\n\n    self.ownerBalance = _newBalance;   // \"deposit\" the amount\n\n    // can't overflow because it will be under the cap\n\t  self.withdrawTokensMap[msg.sender] += _numTokens;\n\n    //subtract tokens from owner's share\n    (err,_remainder) = self.withdrawTokensMap[self.owner].minus(_numTokens);\n    require(!err);\n    self.withdrawTokensMap[self.owner] = _remainder;\n\n\t  emit LogTokensBought(msg.sender, _numTokens);\n\n    return true;\n  }\n\n  /// @dev function to set tokens for the sale\n  /// @param self Stored Crowdsale from crowdsale contract\n  /// @return true if tokens set successfully\n  function setTokens(DirectCrowdsaleStorage storage self) public returns (bool) {\n    require(msg.sender == self.owner);\n    require(!self.tokensSet);\n    require(now < self.endTime);\n\n    uint256 _tokenBalance;\n\n    _tokenBalance = self.token.balanceOf(this);\n    self.withdrawTokensMap[msg.sender] = _tokenBalance;\n    self.startingTokenBalance = _tokenBalance;\n    self.tokensSet = true;\n\n    return true;\n  }\n\n  /// @dev function to check if a purchase is valid\n  /// @param self Stored crowdsale from crowdsale contract\n  /// @return true if the transaction can buy tokens\n  function validPurchase(DirectCrowdsaleStorage storage self) internal returns (bool) {\n    bool nonZeroPurchase = msg.value != 0;\n    if (crowdsaleActive(self) && nonZeroPurchase) {\n      return true;\n    } else {\n      emit LogErrorMsg(msg.value, \"Invalid Purchase! Check start time and amount of ether.\");\n      return false;\n    }\n  }\n\n  /// @dev Function called by purchasers to pull tokens\n  /// @param self Stored crowdsale from crowdsale contract\n  /// @return true if tokens were withdrawn\n  function withdrawTokens(DirectCrowdsaleStorage storage self) public returns (bool) {\n    bool ok;\n\n    if (self.withdrawTokensMap[msg.sender] == 0) {\n      emit LogErrorMsg(0, \"Sender has no tokens to withdraw!\");\n      return false;\n    }\n\n    if (msg.sender == self.owner) {\n      if(!crowdsaleEnded(self)){\n        emit LogErrorMsg(0, \"Owner cannot withdraw extra tokens until after the sale!\");\n        return false;\n      } else {\n        if(self.percentBurn > 0){\n          uint256 _burnAmount = (self.withdrawTokensMap[msg.sender] * self.percentBurn)/100;\n          self.withdrawTokensMap[msg.sender] = self.withdrawTokensMap[msg.sender] - _burnAmount;\n          ok = self.token.burnToken(_burnAmount);\n          require(ok);\n        }\n      }\n    }\n\n    var total = self.withdrawTokensMap[msg.sender];\n    self.withdrawTokensMap[msg.sender] = 0;\n    ok = self.token.transfer(msg.sender, total);\n    require(ok);\n    emit LogTokensWithdrawn(msg.sender, total);\n    return true;\n  }\n\n  /// @dev Function called by purchasers to pull leftover wei from their purchases\n  /// @param self Stored crowdsale from crowdsale contract\n  /// @return true if wei was withdrawn\n  function withdrawLeftoverWei(DirectCrowdsaleStorage storage self) public returns (bool) {\n    if (self.leftoverWei[msg.sender] == 0) {\n      emit LogErrorMsg(0, \"Sender has no extra wei to withdraw!\");\n      return false;\n    }\n\n    var total = self.leftoverWei[msg.sender];\n    self.leftoverWei[msg.sender] = 0;\n    msg.sender.transfer(total);\n    emit LogWeiWithdrawn(msg.sender, total);\n    return true;\n  }\n\n  /// @dev send ether from the completed crowdsale to the owners wallet address\n  /// @param self Stored crowdsale from crowdsale contract\n  /// @return true if owner withdrew eth\n  function withdrawOwnerEth(DirectCrowdsaleStorage storage self) public returns (bool) {\n    if ((!crowdsaleEnded(self)) && (self.token.balanceOf(this)>0)) {\n      emit LogErrorMsg(0, \"Cannot withdraw owner ether until after the sale!\");\n      return false;\n    }\n\n    require(msg.sender == self.owner);\n    require(self.ownerBalance > 0);\n\n    uint256 amount = self.ownerBalance;\n    self.ownerBalance = 0;\n    self.owner.transfer(amount);\n    emit LogOwnerEthWithdrawn(msg.sender,amount,\"Crowdsale owner has withdrawn all funds!\");\n\n    return true;\n  }\n\n  /// @dev Gets the price and buy cap for individual addresses at the given milestone index\n  /// @param self Stored Crowdsale from crowdsale contract\n  /// @param timestamp Time during sale for which data is requested\n  /// @return A 2-element array with 0 the timestamp, 1 the price in eth\n  function getSaleData(DirectCrowdsaleStorage storage self, uint256 timestamp)\n                       public\n                       view\n                       returns (uint256[2])\n  {\n    uint256[2] memory _thisData;\n    uint256 index;\n\n    while((index < self.milestoneTimes.length) && (self.milestoneTimes[index] < timestamp)) {\n      index++;\n    }\n    if(index == 0)\n      index++;\n\n    _thisData[0] = self.milestoneTimes[index - 1];\n    _thisData[1] = self.tokenPrice[_thisData[0]];\n    return _thisData;\n  }\n\n  /// @dev Gets the number of tokens sold thus far\n  /// @param self Stored Crowdsale from crowdsale contract\n  /// @return Number of tokens sold\n  function getTokensSold(DirectCrowdsaleStorage storage self) public view returns (uint256) {\n    return self.startingTokenBalance - self.withdrawTokensMap[self.owner];\n  }\n\n  /// @dev function to check if the crowdsale is currently active\n  /// @param self Stored crowdsale from crowdsale contract\n  /// @return success\n  function crowdsaleActive(DirectCrowdsaleStorage storage self) public view returns (bool) {\n    return (now >= self.startTime && now <= self.endTime);\n  }\n\n  /// @dev function to check if the crowdsale has ended\n  /// @param self Stored crowdsale from crowdsale contract\n  /// @return success\n  function crowdsaleEnded(DirectCrowdsaleStorage storage self) public view returns (bool) {\n    return now > self.endTime;\n  }\n}\n",
  "sourcePath": "/Users/hackdom/Projects/ethereum-libraries-direct-crowdsale/contracts/DirectCrowdsaleLib.sol",
  "compiler": {
    "name": "solc",
    "version": "0.4.21+commit.dfe3193c.Emscripten.clang"
  },
  "schemaVersion": "2.0.0",
  "updatedAt": "2018-04-10T01:12:11.418Z"
}